:100000000C942A000C9447000C94A3030C94470012
:100010000C9447000C9447000C9447000C94470044
:100020000C9447000C9447000C9447000C94470034
:100030000C9447000C9447000C9447000C94470024
:100040000C9447000C9447000C9447000C94470014
:100050000C94470011241FBECFE5D8E0DEBFCDBF12
:1000600011E0A0E6B0E0EAEBFCE002C005900D92E2
:10007000A231B107D9F721E0A2E1B1E001C01D92A0
:10008000AE31B207E1F70E94B7030C945B060C9403
:100090000000672B09F0DFC0009721F48BB38E7F3F
:1000A0008BBB08958130910521F48BB38D7F8BBB81
:1000B00008958230910521F48BB38B7F8BBB08951B
:1000C0008330910521F48BB3877F8BBB08958430F7
:1000D000910521F48BB38F7E8BBB089585309105FC
:1000E00021F48BB38F7D8BBB08958630910521F46D
:1000F0008BB38F7B8BBB08958730910521F48BB335
:100100008F778BBB08958A30910521F488B38E7F59
:1001100088BB08958B30910521F488B38D7F88BB0F
:1001200008958C30910521F488B38B7F88BB0895A6
:100130008D30910521F488B3877F88BB08958E3078
:10014000910521F488B38F7E88BB08958F30910587
:1001500021F488B38F7D88BB08958031910521F407
:1001600088B38F7B88BB08958131910521F488B3D2
:100170008F7788BB08958431910521F485B38E7FF4
:1001800085BB08958531910521F485B38D7F85BBAD
:1001900008958631910521F485B38B7F85BB089541
:1001A0008731910521F485B3877F85BB0895883118
:1001B000910521F485B38F7E85BB08958931910522
:1001C00021F485B38F7D85BB08958A31910521F493
:1001D00085B38F7B85BB08958B31910521F485B361
:1001E0008F7785BB08958E31910521F482B38E7F80
:1001F00082BB08958F31910521F482B38D7F82BB3C
:1002000008958032910521F482B38B7F82BB0895DB
:100210008132910521F482B3877F82BB08958232B7
:10022000910521F482B38F7E82BB089583329105BC
:1002300021F482B38F7D82BB08958432910521F42D
:1002400082B38F7B82BB0895859709F0E1C082B3AA
:100250008F7782BB0895009721F48BB381608BBBAD
:1002600008958130910521F48BB382608BBB089592
:100270008230910521F48BB384608BBB0895833069
:10028000910521F48BB388608BBB08958430910570
:1002900021F48BB380618BBB08958530910521F4E7
:1002A0008BB380628BBB08958630910521F48BB3AC
:1002B00080648BBB08958730910521F48BB38068EF
:1002C0008BBB08958A30910521F488B3816088BB87
:1002D00008958B30910521F488B3826088BB08951E
:1002E0008C30910521F488B3846088BB08958D30EB
:1002F000910521F488B3886088BB08958E309105FC
:1003000021F488B3806188BB08958F30910521F472
:1003100088B3806288BB08958031910521F488B349
:10032000806488BB08958131910521F488B3806889
:1003300088BB08958431910521F485B3816085BB24
:1003400008958531910521F485B3826085BB0895B8
:100350008631910521F485B3846085BB089587318A
:10036000910521F485B3886085BB08958831910596
:1003700021F485B3806185BB08958931910521F40D
:1003800085B3806285BB08958A31910521F485B3D8
:10039000806485BB08958B31910521F485B3806815
:1003A00085BB08958E31910521F482B3816082BBB3
:1003B00008958F31910521F482B3826082BB089544
:1003C0008032910521F482B3846082BB089581322A
:1003D000910521F482B3886082BB08958232910531
:1003E00021F482B3806182BB08958332910521F4A8
:1003F00082B3806282BB08958432910521F482B376
:10040000806482BB0895859719F482B3806882BBAB
:100410000895CF93C82F80FF07C061E070E082E2AB
:1004200090E00E94490006C060E070E082E290E047
:100430000E944900C1FF07C061E070E083E290E0E4
:100440000E94490006C060E070E083E290E00E94F4
:100450004900C2FF07C061E070E084E290E00E94C2
:10046000490006C060E070E084E290E00E9449002C
:10047000C3FF07C061E070E085E290E00E944900A0
:1004800006C060E070E085E290E00E944900CF91F4
:100490000895CF93C82F60E070E08AE190E00E9459
:1004A00049008C2F0E94090261E070E08BE190E02E
:1004B0000E94490089EF90E00197F1F700C0000029
:1004C00060E070E08BE190E00E94490089EF90E0ED
:1004D0000197F1F700C00000CF91089580E00E94DD
:1004E000490281E00E9449020895CF93813061F46E
:1004F00080E8860FC62FCF7082958F700E944902C8
:100500008C2F0E9449020DC0823059F480EC860F76
:10051000C62FCF7082958F700E9449028C2F0E9447
:100520004902CF91089580E00E94090287E893E193
:100530000197F1F700C0000083E00E94490281EEBC
:1005400094E00197F1F700C0000083E00E944902A7
:100550008DEB9AE00197F1F700C0000083E00E9464
:10056000490282E00E94490282E00E94490288E03A
:100570000E94490280E00E9449028CE00E944902E8
:1005800080E00E94490286E00E9449020895CF93CC
:10059000DF93D82FDF70C82FC07F61E070E08AE161
:1005A00090E00E9449008C2F82958F700E94090272
:1005B00061E070E08BE190E00E94490089EF90E0FB
:1005C0000197F1F700C0000060E070E08BE190E07F
:1005D0000E94490089EF90E00197F1F700C0000008
:1005E0008D2F0E94090261E070E08BE190E00E9493
:1005F000490089EF90E00197F1F700C0000060E04A
:1006000070E08BE190E00E94490089EF90E0019753
:10061000F1F700C00000DF91CF9108950F931F9371
:10062000CF93DF938C01C0E0D0E003C00E94C702EB
:100630002196F801EC0FFD1F80818111F7CFDF912A
:10064000CF911F910F91089581E00E94490288E0A7
:100650000E944902089588E18AB986E880BD1BB8E6
:100660008BB1806C8BB989E189B910BC08955F9B0F
:10067000FECF8CB1089588B3816088BBB39B05C061
:1006800088B38E7F88BB81E30895B49B05C088B38F
:100690008E7F88BB84E30895B59B05C088B38E7FA9
:1006A00088BB87E30895B69B05C088B38E7F88BB5F
:1006B0008AE2089588B38E7F88BB88B3826088BB46
:1006C000B39B05C088B38D7F88BB82E30895B49B3C
:1006D00005C088B38D7F88BB85E30895B59B05C0B1
:1006E00088B38D7F88BB88E30895B69B05C088B327
:1006F0008D7F88BB80E3089588B38D7F88BB88B3E6
:10070000846088BBB39B05C088B38B7F88BB83E3C1
:100710000895B49B05C088B38B7F88BB86E308959A
:10072000B59B05C088B38B7F88BB89E30895B69BD2
:1007300005C088B38B7F88BB83E2089588B38B7F25
:1007400088BB80E008951F920F920FB60F9211247C
:100750008F939F9381E090E0909313018093120117
:100760009F918F910F900FBE0F901F901895CF9370
:10077000DF93CDB7DEB72C970FB6F894DEBF0FBE70
:10078000CDBF86EF81BB87E087BB8FEF84BB80E85E
:100790008BBF85B7837F85BF78940E942B0388E346
:1007A00089878A878B878C87C12CD12C00E010E049
:1007B0008091120190911301892B91F045C10E9403
:1007C0003703E1E0F0E0EC0FFD1FE00FF11F808345
:1007D0008FE493EC0197F1F700C000000F5F1F4F0B
:1007E0000430110564F3B79BE3CF87EA91E60197E4
:1007F000F1F700C000000E94930280E690E00E94A2
:100800000E039FE32DE083E0915020408040E1F70C
:1008100000C000000E946E0281E790E00E940E037B
:1008200060E082E00E94750200E010E011C0E1E0AB
:10083000F0E0EC0FFD1FE00FF11F80810E94C70266
:1008400087EA91E60197F1F700C000000F5F1F4FA4
:100850000430110564F39FE926E881E091502040BF
:100860008040E1F700C000000E946E020E946E020C
:1008700088E790E00E940E0360E082E00E9475022B
:100880008FE493EC0197F1F700C000001BC00E94B9
:100890003B038823B9F00E943B03E5E0F0E0EC0F56
:1008A000FD1FEC0DFD1D80830E94C7029FE926E815
:1008B00081E0915020408040E1F700C000009FEFB0
:1008C000C91AD90A24E0C216D1040CF30E946E02A0
:1008D00000E010E020C0E1E0F0E0EC0FFD1FE00FD1
:1008E000F11F9081E5E0F0E0EC0FFD1FE00FF11F3C
:1008F0008081981771F088E890E00E940E038FE3E2
:100900009DE023E0815090402040E1F700C00000CE
:1009100005C00F5F1F4F04301105ECF204301105C4
:1009200009F08BC088E990E00E940E0381E085BB4E
:100930008FEB97E229E0815090402040E1F700C022
:10094000000015BA8FE996E821E0815090402040E0
:10095000E1F700C0000060E082E00E9475028AEAD0
:1009600090E00E940E038FE39DE023E081509040D1
:100970002040E1F700C000000E946E028AEB90E088
:100980000E940E03C8990AC080911A0190911B0120
:10099000019690931B0180931A0123C0C9990AC044
:1009A00080911801909119010196909319018093FB
:1009B000180117C0CA990AC08091160190911701B9
:1009C000019690931701809316010BC0CB99DACF53
:1009D00080911401909115010196909315018093D7
:1009E00014010E946E0283EC90E00E940E0300E06E
:1009F00010E00AC087EA91E60197F1F700C0000015
:100A00000E9424030F5F1F4F043011059CF382E006
:100A100085BB9FEB27E289E0915020408040E1F7C1
:100A200000C0000083E085BB9FE926E881E091508B
:100A300020408040E1F700C000000E946E02C12CFF
:100A4000D12C00E010E0B4CE8091120190911301FE
:100A5000892B09F4ADCE0E946E0288ED90E00E94D1
:100A60000E039FE32DE083E0915020408040E1F7AA
:100A700000C000000E946E0285EE90E00E940E030E
:100A800060E082E00E9475028FE493EC0197F1F739
:100A900000C000001BC00E943B038823B9F00E94E5
:100AA0003B03E5E0F0E0EC0FFD1FEC0DFD1D808346
:100AB0000E94C7029FE926E881E0915020408040D3
:100AC000E1F700C000009FEFC91AD90A24E0C2165E
:100AD000D1040CF30E946E02E12CF12C21C0E9E05C
:100AE000F0E0EC0FFD1FEE0DFF1D9081E5E0F0E062
:100AF000EC0FFD1FEE0DFF1D8081981771F088E847
:100B000090E00E940E038FE39DE023E0815090402F
:100B10002040E1F700C0000007C08FEFE81AF80A94
:100B200094E0E916F104DCF224E0E216F10409F0A5
:100B30003FCE88E990E00E940E0381E085BB8FEBF9
:100B400097E229E0815090402040E1F700C000008A
:100B500015BA8FE996E821E0815090402040E1F7F6
:100B600000C000000E946E0286EF90E00E940E031B
:100B7000CC99FECF0E946E0282E091E00E940E03AB
:100B800060911C0170911D014AE080911A019091C1
:100B90001B010E94260680911C0190911D010E945C
:100BA0000E0368E081E00E94750286E091E00E94F9
:100BB0000E0360911C0170911D014AE080911801A3
:100BC000909119010E94260680911C0190911D01AF
:100BD0000E940E0360E082E00E9475028AE091E0CC
:100BE0000E940E0360911C0170911D014AE08091EA
:100BF0001601909117010E94260680911C01909188
:100C00001D010E940E0368E082E00E9475028EE0E2
:100C100091E00E940E0360911C0170911D014AE059
:100C200080911401909115010E94260680911C016B
:100C300090911D010E940E038FE79AE126E08150FA
:100C400090402040E1F700C00000B2CDBB274A3001
:100C500031F4992322F4BDE2909581959F4F0C9435
:100C60003206BB27FB015527AA27880F991FAA1F09
:100C7000A41710F0A41B83955051B9F7A05DAA33B7
:100C800008F0A95DA193009779F7B111B193119282
:100C9000CB010C944B06DC01FC01672F719177238B
:100CA000E1F7329704C07C916D9370836291AE1727
:0A0CB000BF07C8F30895F894FFCFC2
:100CBA004D6F74696F6E2044657465637465642151
:100CCA00004C6F636B3A2000596F75722050617344
:100CDA0073636F64653A200057726F6E67205061C4
:100CEA007373636F64652100436F72726563742066
:100CFA0050617373636F64652E0050726F6365652C
:100D0A006420546F20566F746500566F7465204EC8
:100D1A006F77005468616E6B20596F7520466F7249
:100D2A0020566F74696E6700566F74696E67204546
:100D3A006E6465640041646D696E2050617373630B
:100D4A006F64653A200053686F7720566F74657335
:100D5A003F00413A2000423A2000433A2000443AF8
:020D6A00200067
:00000001FF
