:100000000C942A000C943F000C943F000C943F0089
:100010000C943F000C943F000C943F000C943F0064
:100020000C943F000C943F000C943F000C943F0054
:100030000C943F000C943F000C943F000C943F0044
:100040000C943F000C943F000C943F000C943F0034
:100050000C943F0011241FBECFE5D8E0DEBFCDBF1A
:1000600010E0A0E6B0E0E6E6F9E002C005900D92EF
:10007000AA3DB107D9F70E949B030C94B1040C94DC
:100080000000672B09F0DFC0009721F48BB38E7F4F
:100090008BBB08958130910521F48BB38D7F8BBB91
:1000A00008958230910521F48BB38B7F8BBB08952B
:1000B0008330910521F48BB3877F8BBB0895843007
:1000C000910521F48BB38F7E8BBB0895853091050C
:1000D00021F48BB38F7D8BBB08958630910521F47D
:1000E0008BB38F7B8BBB08958730910521F48BB345
:1000F0008F778BBB08958A30910521F488B38E7F6A
:1001000088BB08958B30910521F488B38D7F88BB1F
:1001100008958C30910521F488B38B7F88BB0895B6
:100120008D30910521F488B3877F88BB08958E3088
:10013000910521F488B38F7E88BB08958F30910597
:1001400021F488B38F7D88BB08958031910521F417
:1001500088B38F7B88BB08958131910521F488B3E2
:100160008F7788BB08958431910521F485B38E7F04
:1001700085BB08958531910521F485B38D7F85BBBD
:1001800008958631910521F485B38B7F85BB089551
:100190008731910521F485B3877F85BB0895883128
:1001A000910521F485B38F7E85BB08958931910532
:1001B00021F485B38F7D85BB08958A31910521F4A3
:1001C00085B38F7B85BB08958B31910521F485B371
:1001D0008F7785BB08958E31910521F482B38E7F90
:1001E00082BB08958F31910521F482B38D7F82BB4C
:1001F00008958032910521F482B38B7F82BB0895EC
:100200008132910521F482B3877F82BB08958232C7
:10021000910521F482B38F7E82BB089583329105CC
:1002200021F482B38F7D82BB08958432910521F43D
:1002300082B38F7B82BB0895859709F0E1C082B3BA
:100240008F7782BB0895009721F48BB381608BBBBD
:1002500008958130910521F48BB382608BBB0895A2
:100260008230910521F48BB384608BBB0895833079
:10027000910521F48BB388608BBB08958430910580
:1002800021F48BB380618BBB08958530910521F4F7
:100290008BB380628BBB08958630910521F48BB3BC
:1002A00080648BBB08958730910521F48BB38068FF
:1002B0008BBB08958A30910521F488B3816088BB97
:1002C00008958B30910521F488B3826088BB08952E
:1002D0008C30910521F488B3846088BB08958D30FB
:1002E000910521F488B3886088BB08958E3091050C
:1002F00021F488B3806188BB08958F30910521F483
:1003000088B3806288BB08958031910521F488B359
:10031000806488BB08958131910521F488B3806899
:1003200088BB08958431910521F485B3816085BB34
:1003300008958531910521F485B3826085BB0895C8
:100340008631910521F485B3846085BB089587319A
:10035000910521F485B3886085BB089588319105A6
:1003600021F485B3806185BB08958931910521F41D
:1003700085B3806285BB08958A31910521F485B3E8
:10038000806485BB08958B31910521F485B3806825
:1003900085BB08958E31910521F482B3816082BBC3
:1003A00008958F31910521F482B3826082BB089554
:1003B0008032910521F482B3846082BB089581323A
:1003C000910521F482B3886082BB08958232910541
:1003D00021F482B3806182BB08958332910521F4B8
:1003E00082B3806282BB08958432910521F482B386
:1003F000806482BB0895859719F482B3806882BBBC
:100400000895CF93C82F80FF07C061E070E082E2BB
:1004100090E00E94410006C060E070E082E290E05F
:100420000E944100C1FF07C061E070E083E290E0FC
:100430000E94410006C060E070E083E290E00E940C
:100440004100C2FF07C061E070E084E290E00E94DA
:10045000410006C060E070E084E290E00E9441004C
:10046000C3FF07C061E070E085E290E00E944100B8
:1004700006C060E070E085E290E00E944100CF910C
:100480000895CF93C82F60E070E08AE190E00E9469
:1004900041008C2F0E94010261E070E08BE190E04E
:1004A0000E94410089EF90E00197F1F700C0000041
:1004B00060E070E08BE190E00E94410089EF90E005
:1004C0000197F1F700C00000CF91089580E00E94ED
:1004D000410281E00E9441020895CF93813061F48E
:1004E00080E8860FC62FCF7082958F700E944102E0
:1004F0008C2F0E9441020DC0823059F480EC860F8F
:10050000C62FCF7082958F700E9441028C2F0E945F
:100510004102CF91089580E00E94010287E893E1B3
:100520000197F1F700C0000083E00E94410281EED4
:1005300094E00197F1F700C0000083E00E944102BF
:100540008DEB9AE00197F1F700C0000083E00E9474
:10055000410282E00E94410282E00E94410288E062
:100560000E94410280E00E9441028CE00E94410210
:1005700080E00E94410286E00E9441020895CF93EC
:10058000DF93D82FDF70C82FC07F61E070E08AE171
:1005900090E00E9441008C2F82958F700E94010292
:1005A00061E070E08BE190E00E94410089EF90E013
:1005B0000197F1F700C0000060E070E08BE190E08F
:1005C0000E94410089EF90E00197F1F700C0000020
:1005D0008D2F0E94010261E070E08BE190E00E94AB
:1005E000410089EF90E00197F1F700C0000060E062
:1005F00070E08BE190E00E94410089EF90E001976C
:10060000F1F700C00000DF91CF9108950F931F9381
:10061000CF93DF938C01C0E0D0E003C00E94BF0203
:100620002196F801EC0FFD1F80818111F7CFDF913A
:10063000CF911F910F91089581E00E94410288E0BF
:100640000E944102089588E18AB986E880BD1BB8FE
:100650008BB1806C8BB989E189B910BC08955F9B1F
:10066000FECF8CB1089588B3816088BBB39B05C071
:1006700088B38E7F88BB81E30895B49B05C088B39F
:100680008E7F88BB84E30895B59B05C088B38E7FB9
:1006900088BB87E30895B69B05C088B38E7F88BB6F
:1006A0008AE2089588B38E7F88BB88B3826088BB56
:1006B000B39B05C088B38D7F88BB82E30895B49B4C
:1006C00005C088B38D7F88BB85E30895B59B05C0C1
:1006D00088B38D7F88BB88E30895B69B05C088B337
:1006E0008D7F88BB80E3089588B38D7F88BB88B3F6
:1006F000846088BBB39B05C088B38B7F88BB83E3D2
:100700000895B49B05C088B38B7F88BB86E30895AA
:10071000B59B05C088B38B7F88BB89E30895B69BE2
:1007200005C088B38B7F88BB83E2089588B38B7F35
:1007300088BB80E008950F931F93CF93DF93CDB7CD
:10074000DEB728970FB6F894DEBF0FBECDBF8EEF91
:1007500081BB87E087BB8FEF84BB0E94230300E04F
:1007600010E011C00E942F03E1E0F0E0EC0FFD1F4C
:10077000E00FF11F80838FE493EC0197F1F700C045
:1007800000000F5F1F4F0430110564F3B79BFBCFD0
:1007900087EA91E60197F1F700C000000E948B0202
:1007A00080E690E00E9406039FE32DE083E09150F5
:1007B00020408040E1F700C000000E94660281E70F
:1007C00090E00E94060360E082E00E946D0200E07B
:1007D00010E011C0E1E0F0E0EC0FFD1FE00FF11FB1
:1007E00080810E94BF0287EA91E60197F1F700C07D
:1007F00000000F5F1F4F0430110564F39FE926E8E6
:1008000081E0915020408040E1F700C000000E944C
:10081000660288E790E00E94060300E010E00AC04C
:1008200087EA91E60197F1F700C000000E941C03DF
:100830000F5F1F4F003111059CF30E94660287E98C
:1008400090E00E94060360E082E00E946D028FE467
:1008500093EC0197F1F700C0000000E010E01AC02F
:100860000E9433038823B1F00E943303E5E0F0E0F7
:10087000EC0FFD1FE00FF11F80830E94BF029FE974
:1008800026E881E0915020408040E1F700C0000060
:100890000F5F1F4F043011051CF30E94660200E039
:1008A00010E020C0E1E0F0E0EC0FFD1FE00FF11FD1
:1008B0009081E5E0F0E0EC0FFD1FE00FF11F80817B
:1008C000981771F087EA90E00E9406039FE32DE0FD
:1008D00083E0915020408040E1F700C0000005C057
:1008E0000F5F1F4F04301105ECF20430110551F574
:1008F00087EB90E00E94060381E085BB9FEF24E335
:100900008CE0915020408040E1F700C0000015BA13
:100910009FE926E881E0915020408040E1F700C047
:10092000000060E082E00E946D0289EC90E00E948D
:1009300006039FE32DE083E0915020408040E1F7E3
:1009400000C000000E94660280E090E028960FB68A
:10095000F894DEBF0FBECDBFDF91CF911F910F91F5
:060960000895F894FFCF9A
:100966004D6F74696F6E20446574656374656421A8
:10097600004C6F636B3A2000496E70757420796F76
:10098600757220756E697175652070617373636F1A
:100996006465206E6F7700596F75722050617373AE
:1009A600636F64653A200057726F6E6720506173FB
:1009B60073636F64652100436F72726563742050C0
:1009C600617373636F64652E0050726F636565644F
:0A09D60020546F20566F7465000076
:00000001FF
