:100000000C942A000C943F000C943F000C943F0089
:100010000C943F000C943F000C943F000C943F0064
:100020000C943F000C943F000C943F000C943F0054
:100030000C943F000C943F000C943F000C943F0044
:100040000C943F000C943F000C943F000C943F0034
:100050000C943F0011241FBECFE5D8E0DEBFCDBF1A
:1000600010E0A0E6B0E0E6E8F6E002C005900D92F0
:10007000A836B107D9F70E9425030C9441030C94CC
:100080000000672B09F0DFC0009721F48BB38E7F4F
:100090008BBB08958130910521F48BB38D7F8BBB91
:1000A00008958230910521F48BB38B7F8BBB08952B
:1000B0008330910521F48BB3877F8BBB0895843007
:1000C000910521F48BB38F7E8BBB0895853091050C
:1000D00021F48BB38F7D8BBB08958630910521F47D
:1000E0008BB38F7B8BBB08958730910521F48BB345
:1000F0008F778BBB08958A30910521F488B38E7F6A
:1001000088BB08958B30910521F488B38D7F88BB1F
:1001100008958C30910521F488B38B7F88BB0895B6
:100120008D30910521F488B3877F88BB08958E3088
:10013000910521F488B38F7E88BB08958F30910597
:1001400021F488B38F7D88BB08958031910521F417
:1001500088B38F7B88BB08958131910521F488B3E2
:100160008F7788BB08958431910521F485B38E7F04
:1001700085BB08958531910521F485B38D7F85BBBD
:1001800008958631910521F485B38B7F85BB089551
:100190008731910521F485B3877F85BB0895883128
:1001A000910521F485B38F7E85BB08958931910532
:1001B00021F485B38F7D85BB08958A31910521F4A3
:1001C00085B38F7B85BB08958B31910521F485B371
:1001D0008F7785BB08958E31910521F482B38E7F90
:1001E00082BB08958F31910521F482B38D7F82BB4C
:1001F00008958032910521F482B38B7F82BB0895EC
:100200008132910521F482B3877F82BB08958232C7
:10021000910521F482B38F7E82BB089583329105CC
:1002200021F482B38F7D82BB08958432910521F43D
:1002300082B38F7B82BB0895859709F0E1C082B3BA
:100240008F7782BB0895009721F48BB381608BBBBD
:1002500008958130910521F48BB382608BBB0895A2
:100260008230910521F48BB384608BBB0895833079
:10027000910521F48BB388608BBB08958430910580
:1002800021F48BB380618BBB08958530910521F4F7
:100290008BB380628BBB08958630910521F48BB3BC
:1002A00080648BBB08958730910521F48BB38068FF
:1002B0008BBB08958A30910521F488B3816088BB97
:1002C00008958B30910521F488B3826088BB08952E
:1002D0008C30910521F488B3846088BB08958D30FB
:1002E000910521F488B3886088BB08958E3091050C
:1002F00021F488B3806188BB08958F30910521F483
:1003000088B3806288BB08958031910521F488B359
:10031000806488BB08958131910521F488B3806899
:1003200088BB08958431910521F485B3816085BB34
:1003300008958531910521F485B3826085BB0895C8
:100340008631910521F485B3846085BB089587319A
:10035000910521F485B3886085BB089588319105A6
:1003600021F485B3806185BB08958931910521F41D
:1003700085B3806285BB08958A31910521F485B3E8
:10038000806485BB08958B31910521F485B3806825
:1003900085BB08958E31910521F482B3816082BBC3
:1003A00008958F31910521F482B3826082BB089554
:1003B0008032910521F482B3846082BB089581323A
:1003C000910521F482B3886082BB08958232910541
:1003D00021F482B3806182BB08958332910521F4B8
:1003E00082B3806282BB08958432910521F482B386
:1003F000806482BB0895859719F482B3806882BBBC
:100400000895CF93C82F80FF07C061E070E082E2BB
:1004100090E00E94410006C060E070E082E290E05F
:100420000E944100C1FF07C061E070E083E290E0FC
:100430000E94410006C060E070E083E290E00E940C
:100440004100C2FF07C061E070E084E290E00E94DA
:10045000410006C060E070E084E290E00E9441004C
:10046000C3FF07C061E070E085E290E00E944100B8
:1004700006C060E070E085E290E00E944100CF910C
:100480000895CF93C82F60E070E08AE190E00E9469
:1004900041008C2F0E94010261E070E08BE190E04E
:1004A0000E94410089EF90E00197F1F700C0000041
:1004B00060E070E08BE190E00E94410089EF90E005
:1004C0000197F1F700C00000CF910895CF938130DC
:1004D00061F480E8860FC62FCF7082958F700E94DE
:1004E00041028C2F0E9441020DC0823059F480ECF1
:1004F000860FC62FCF7082958F700E9441028C2F7D
:100500000E944102CF91089580E00E94010287E895
:1005100093E10197F1F700C0000083E00E944102DF
:1005200081EE94E00197F1F700C0000083E00E94A3
:1005300041028DEB9AE00197F1F700C0000083E0E3
:100540000E94410282E00E94410282E00E94410238
:1005500088E00E94410280E00E9441028CE00E94FB
:10056000410280E00E94410286E00E94410208951B
:10057000CF93DF93D82FDF70C82FC07F61E070E08A
:100580008AE190E00E9441008C2F82958F700E943A
:10059000010261E070E08BE190E00E94410089EF90
:1005A00090E00197F1F700C0000060E070E08BE19F
:1005B00090E00E94410089EF90E00197F1F700C0C0
:1005C00000008D2F0E94010261E070E08BE190E05D
:1005D0000E94410089EF90E00197F1F700C0000010
:1005E00060E070E08BE190E00E94410089EF90E0D4
:1005F0000197F1F700C00000DF91CF9108950F93AC
:100600001F93CF93DF938C01C0E0D0E003C00E9422
:10061000B8022196F801EC0FFD1F80818111F7CF00
:10062000DF91CF911F910F91089588E18AB986E8F3
:1006300080BD1BB88BB1806C8BB989E189B910BCC6
:1006400008955F9BFECF8CB108958EEF81BB8FEF35
:1006500084BB0E9484020E94150380E690E00E9401
:10066000FF0260E082E00E946602C0E0D0E005C0C8
:100670000E9421030E94B8022196C430D105C4F320
:06068000FCCFF894FFCF4F
:080686004C6F636B3A20000089
:00000001FF
