S013000052464944204D6F64756C652E7372656366
S11300000C942A000C9447000C9447000C9447006D
S11300100C9447000C9447000C9447000C94470040
S11300200C9447000C9447000C9447000C94470030
S11300300C9447000C9447000C9447000C94470020
S11300400C9447000C9447000C9447000C94470010
S11300500C94470011241FBECFE5D8E0DEBFCDBF0E
S113006010E0A0E6B0E0E0E9FAE002C005900D92ED
S1130070AE3FB107D9F721E0AEEFB0E001C01D9269
S1130080A230B207E1F70E944B030C9446050C948E
S11300900000FC010FB6F8946091FE007091FF001F
S11300A080910001909101010FBE309721F060838F
S11300B07183828393830895672B09F0DFC00097CF
S11300C021F48BB38E7F8BBB08958130910521F48D
S11300D08BB38D7F8BBB08958230910521F48BB354
S11300E08B7F8BBB08958330910521F48BB3877F7D
S11300F08BBB08958430910521F48BB38F7E8BBB29
S113010008958530910521F48BB38F7D8BBB0895C1
S11301108630910521F48BB38F7B8BBB0895873098
S1130120910521F48BB38F778BBB08958A309105A9
S113013021F488B38E7F88BB08958B30910521F418
S113014088B38D7F88BB08958C30910521F488B3E2
S11301508B7F88BB08958D30910521F488B3877F08
S113016088BB08958E30910521F488B38F7E88BBB7
S113017008958F30910521F488B38F7D88BB08954D
S11301808031910521F488B38F7B88BB0895813138
S1130190910521F488B38F7788BB08958431910544
S11301A021F485B38E7F85BB08958531910521F4B3
S11301B085B38D7F85BB08958631910521F485B380
S11301C08B7F85BB08958731910521F485B3877FA3
S11301D085BB08958831910521F485B38F7E85BB55
S11301E008958931910521F485B38F7D85BB0895E8
S11301F08A31910521F485B38F7B85BB08958B31BA
S1130200910521F485B38F7785BB08958E319105CF
S113021021F482B38E7F82BB08958F31910521F43E
S113022082B38D7F82BB08958032910521F482B31D
S11302308B7F82BB08958132910521F482B3877F3D
S113024082BB08958232910521F482B38F7E82BBF2
S113025008958332910521F482B38F7D82BB089582
S11302608432910521F482B38F7B82BB08958597F4
S113027009F0E1C082B38F7782BB0895009721F41F
S11302808BB381608BBB08958130910521F48BB3CE
S113029082608BBB08958230910521F48BB3846016
S11302A08BBB08958330910521F48BB388608BBB9D
S11302B008958430910521F48BB380618BBB08953C
S11302C08530910521F48BB380628BBB0895863011
S11302D0910521F48BB380648BBB0895873091051D
S11302E021F48BB380688BBB08958A30910521F487
S11302F088B3816088BB08958B30910521F488B35D
S1130300826088BB08958C30910521F488B38460A1
S113031088BB08958D30910521F488B3886088BB2B
S113032008958E30910521F488B3806188BB0895C7
S11303308F30910521F488B3806288BB08958031A1
S1130340910521F488B3806488BB089581319105B7
S113035021F488B3806888BB08958431910521F421
S113036085B3816085BB08958531910521F485B3FA
S1130370826085BB08958631910521F485B384603C
S113038085BB08958731910521F485B3886085BBC9
S113039008958831910521F485B3806185BB089562
S11303A08931910521F485B3806285BB08958A3132
S11303B0910521F485B3806485BB08958B31910543
S11303C021F485B3806885BB08958E31910521F4AD
S11303D082B3816082BB08958F31910521F482B389
S11303E0826082BB08958032910521F482B38460D7
S11303F082BB08958132910521F482B3886082BB67
S113040008958232910521F482B3806182BB0895FC
S11304108332910521F482B3806282BB08958432D1
S1130420910521F482B3806482BB0895859719F401
S113043082B3806882BB0895CF93C82F80FF07C022
S113044061E070E084E090E00E945C0006C060E03F
S113045070E084E090E00E945C00C1FF07C061E0AE
S113046070E085E090E00E945C0006C060E070E00F
S113047085E090E00E945C00C2FF07C061E070E08C
S113048086E090E00E945C0006C060E070E086E0D8
S113049090E00E945C00C3FF07C061E070E087E069
S11304A090E00E945C0006C060E070E087E090E0AD
S11304B00E945C00CF910895CF93C82F60E070E054
S11304C080E090E00E945C008C2F0E941C0261E09E
S11304D070E081E090E00E945C0089EF90E0019779
S11304E0F1F700C0000060E070E081E090E00E945D
S11304F05C0089EF90E00197F1F700C00000CF9114
S1130500089580E00E945C0281E00E945C020895EC
S1130510CF93813061F480E8860FC62FCF70829527
S11305208F700E945C028C2F0E945C020DC082308E
S113053059F480EC860FC62FCF7082958F700E947D
S11305405C028C2F0E945C02CF91089580E00E948F
S11305501C0287E893E10197F1F700C0000083E0F3
S11305600E945C0281EE94E00197F1F700C0000064
S113057083E00E945C028DEB9AE00197F1F700C0E2
S1130580000083E00E945C0282E00E945C0282E040
S11305900E945C0288E00E945C0280E00E945C028F
S11305A08CE00E945C0280E00E945C0286E00E9473
S11305B05C020895CF93DF93D82FDF70C82FC07FDC
S11305C061E070E080E090E00E945C008C2F8295F6
S11305D08F700E941C0261E070E081E090E00E9454
S11305E05C0089EF90E00197F1F700C0000060E043
S11305F070E081E090E00E945C0089EF90E0019758
S1130600F1F700C000008D2F0E941C0261E070E031
S113061081E090E00E945C0089EF90E00197F1F79F
S113062000C0000060E070E081E090E00E945C00A7
S113063089EF90E00197F1F700C00000DF91CF91BE
S113064008950F931F93CF93DF938C01C0E0D0E004
S113065003C00E94DA022196F801EC0FFD1F80818D
S11306608111F7CFDF91CF911F910F91089588E108
S11306708AB986E880BD1BB88BB1806C8BB989E1DF
S113068089B910BC08955F9BFECF8CB108955D9B22
S1130690FECF8CB90895CF93DF93CDB7DEB72E97F5
S11306A00FB6F894DEBF0FBECDBF8EEF81BB8FEFC8
S11306B08ABB0E94A6020E9437030E9481028AE933
S11306C090E00E9421032FE936E881E02150304078
S11306D08040E1F700C0000061E082E00E948802EF
S11306E088EA90E00E9421039FE926E831E09150D6
S11306F020403040E1F700C000000E94810281EBFD
S113070090E00E94210360E082E00E948802E12CD4
S1130710F12C01E010E00E944303F801319721E03D
S113072030E02C0F3D1FE20FF31F80830E94DA029A
S11307306091960070919700061717071CF40F5FDD
S11307401F4FE9CF06171707B1F528C0CA01880F54
S1130750991F880F991F880F991FFA01EE0FFF1F29
S1130760E80FF91FEC59FF4FE20FF31F9081E1E00E
S1130770F0E0EC0FFD1FE20FF31F8081981308C017
S11307802F5F3F4F02C020E030E026173707F4F216
S11307902617370769F04F5F5F4F02C040E050E013
S11307A080919800909199004817590764F303C009
S11307B0EE24E394F12CE114F10479F40E94810213
S11307C080EC90E00E94210360E082E00E948802B5
S11307D08BEC90E00E94210370CF31E0E316F1042A
S11307E009F099CF0E9481028CED90E00E942103D0
S11307F08FE191EA27E0815090402040E1F700C06A
S113080000000E94810280E090E00E9449000E9462
S1130810D8040E94D30468E273E20E945F04885102
S11308209C4F20E030E010C06AE070E00E945F045A
S1130830EBE0F0E0EC0FFD1FE20FF31F805D80831F
S1130840862F972F2F5F3F4F009771F78CEE90E024
S11308500E94210360E082E00E94880203E010E02D
S113086015C0EBE0F0E0EC0FFD1FE00FF11FF0808E
S11308708F2D0E94DA0287EA91E60197F1F700C012
S113088000008F2D0E944703015011090F3F9FEF75
S1130890190739F72FE332E48FE0215030408040CC
S11308A0E1F700C000000E9481029FEB27E239E0DB
S11308B0915020403040E1F700C00000FECE97FB8D
S11308C0072E16F4009407D077FD09D00E94730414
S11308D007FC05D03EF4909581959F4F089570953F
S11308E061957F4F0895AA1BBB1B51E107C0AA1F46
S11308F0BB1FA617B70710F0A61BB70B881F991FBD
S11309005A95A9F780959095BC01CD0108958F92D1
S11309109F92AF92BF92CF92DF92EF92FF92CF93CA
S1130920DF93EC01688179818A819B81611571056E
S11309308105910521F464E279ED8BE597E02DE1E1
S113094033EF41E050E00E94E30449015A019B0166
S1130950AC01A7EAB1E40E9402056B017C01ACEE94
S1130960B4EFA50194010E941005DC01CB018C0DAC
S11309709D1DAE1DBF1DB7FF03C00197A109B0485F
S113098088839983AA83BB839F77DF91CF91FF905C
S1130990EF90DF90CF90BF90AF909F908F9008958D
S11309A00E948704089580E690E00E9487040895D9
S11309B0A0E0B0E08093600090936100A093620097
S11309C0B09363000895052E97FB1EF400940E94D3
S11309D0FA0457FD07D00E94150507FC03D04EF416
S11309E00C94FA0450954095309521953F4F4F4F04
S11309F05F4F089590958095709561957F4F8F4FC7
S1130A009F4F08950E943705A59F900DB49F900DA8
S1130A10A49F800D911D11240895B7FF0C94020525
S1130A200E940205821B930B0895A1E21A2EAA1BB1
S1130A30BB1BFD010DC0AA1FBB1FEE1FFF1FA2178A
S1130A40B307E407F50720F0A21BB30BE40BF50B87
S1130A50661F771F881F991F1A9469F76095709510
S1130A60809590959B01AC01BD01CF010895A29F93
S1130A70B001B39FC001A39F700D811D1124911D6E
S1130A80B29F700D811D1124911D0895F894FFCF1C
S1130A9001000000313530313032303330343135FB
S1130AA0303130323033303531353031303230332B
S1130AB03036313530313032303330373135303112
S1130AC03032303330380A00050057616974696E7A
S1130AD06720666F722020005246494420546167A3
S1130AE00052656164696E67205461672E2E2E0082
S1130AF04944206D617463683A20004E6F74206627
S1130B006F756E642E205265736574004944206DC0
S1130B106174636820666F756E642100596F757225
S1110B20204C6F636B20436F64653A20000025
S9030000FC
